:020000040800F2
:1000000000280020FD0100084D0200084D020008F4
:100010004D0200084D0200084D02000800000000DB
:100020000000000000000000000000004D02000879
:100030004D020008000000004D0200084D020008BB
:100040004D0200084D0200084D0200084D02000854
:100050004D0200084D0200084D0200084D02000844
:100060004D0200084D0200084D0200084D02000834
:100070004D0200084D0200084D0200084D02000824
:100080004D0200084D0200084D0200084D02000814
:100090004D0200084D0200084D0200084D02000804
:1000A0004D0200084D0200084D0200084D020008F4
:1000B0004D0200084D0200084D0200084D020008E4
:1000C0004D0200084D0200084D0200084D020008D4
:1000D0004D0200084D0200084D0200084D020008C4
:1000E0004D0200084D020008000000004D0200080B
:1000F0004D0200084D0200084D0200084D020008A4
:100100004D0200084D0200084D0200084D02000893
:100110004D0200084D0200084D0200084D02000883
:100120004D0200084D0200084D0200084D02000873
:1001300010B5054C237833B9044B13B10448AFF321
:1001400000800123237010BD040000200000000087
:100150009802000808B5034B1BB103490348AFF3ED
:10016000008008BD00000000080000209802000880
:1001700080B500AF134B1B68124A43F004031360B1
:10018000114B1B68104A23F4700313600E4B1B685D
:100190000D4A43F4001313600C4B1A68138843F4A0
:1001A0000053138042F2107000F012F8074B1A68E7
:1001B00013886FF34D33138042F2107000F008F88B
:1001C000EAE700BF181002400408014000000020C8
:1001D00080B485B000AF78600023FB600023FB6033
:1001E00002E0FB680133FB60FB687A689A42F8DC46
:1001F00000BF00BF1437BD4680BC70470D48854620
:10020000AFF300800C480D490D4A002302E0D4589A
:10021000C4500433C4188C42F9D30A4A0A4C002350
:1002200001E013600432A242FBD300F011F8FFF7A3
:100230009FFFFEE7002800200000002004000020AF
:10024000B80200080400002020000020FEE70000A3
:1002500070B500260C4D0D4C641BA410A64209D1AC
:1002600000F01AF800260A4D0A4C641BA410A6429E
:1002700005D170BD55F8043B98470136EEE755F8B7
:10028000043B98470136F2E7B0020008B0020008CC
:10029000B0020008B4020008F8B500BFF8BC08BC02
:1002A0009E467047F8B500BFF8BC08BC9E46704734
:0402B00055010008EC
:0402B400310100080C
:0402B8000C080140ED
:04000005080001FDF1
:00000001FF
